{
  "_format": "hh-sol-artifact-1",
  "contractName": "DelegateOwnership",
  "sourceName": "contracts/DelegateOwnership.sol",
  "abi": [
    {
      "inputs": [
        {
          "internalType": "address",
          "name": "contractAddress",
          "type": "address"
        },
        {
          "internalType": "address",
          "name": "owner",
          "type": "address"
        }
      ],
      "name": "balanceOf",
      "outputs": [
        {
          "internalType": "uint256",
          "name": "balance",
          "type": "uint256"
        }
      ],
      "stateMutability": "view",
      "type": "function"
    },
    {
      "inputs": [
        {
          "internalType": "bytes32",
          "name": "_messageHash",
          "type": "bytes32"
        }
      ],
      "name": "getEthSignedMessageHash",
      "outputs": [
        {
          "internalType": "bytes32",
          "name": "",
          "type": "bytes32"
        }
      ],
      "stateMutability": "pure",
      "type": "function"
    },
    {
      "inputs": [
        {
          "internalType": "address",
          "name": "_hotWalletAddress",
          "type": "address"
        }
      ],
      "name": "getMessageHash",
      "outputs": [
        {
          "internalType": "bytes32",
          "name": "",
          "type": "bytes32"
        }
      ],
      "stateMutability": "pure",
      "type": "function"
    },
    {
      "inputs": [
        {
          "internalType": "address",
          "name": "contractAddress",
          "type": "address"
        },
        {
          "internalType": "uint256",
          "name": "tokenId",
          "type": "uint256"
        }
      ],
      "name": "ownerOf",
      "outputs": [
        {
          "internalType": "address",
          "name": "owner",
          "type": "address"
        }
      ],
      "stateMutability": "view",
      "type": "function"
    },
    {
      "inputs": [
        {
          "internalType": "bytes32",
          "name": "_ethSignedMessageHash",
          "type": "bytes32"
        },
        {
          "internalType": "bytes",
          "name": "_sig",
          "type": "bytes"
        }
      ],
      "name": "recover",
      "outputs": [
        {
          "internalType": "address",
          "name": "",
          "type": "address"
        }
      ],
      "stateMutability": "pure",
      "type": "function"
    },
    {
      "inputs": [
        {
          "internalType": "address",
          "name": "_coldWallet",
          "type": "address"
        },
        {
          "internalType": "bytes",
          "name": "_sig",
          "type": "bytes"
        }
      ],
      "name": "setMapping",
      "outputs": [],
      "stateMutability": "nonpayable",
      "type": "function"
    },
    {
      "inputs": [
        {
          "internalType": "address",
          "name": "_coldWallet",
          "type": "address"
        },
        {
          "internalType": "bytes",
          "name": "_sig",
          "type": "bytes"
        }
      ],
      "name": "unsetMapping",
      "outputs": [],
      "stateMutability": "nonpayable",
      "type": "function"
    },
    {
      "inputs": [
        {
          "internalType": "address",
          "name": "_signer",
          "type": "address"
        },
        {
          "internalType": "address",
          "name": "_hotWalletAddress",
          "type": "address"
        },
        {
          "internalType": "bytes",
          "name": "_sig",
          "type": "bytes"
        }
      ],
      "name": "verify",
      "outputs": [
        {
          "internalType": "bool",
          "name": "",
          "type": "bool"
        }
      ],
      "stateMutability": "pure",
      "type": "function"
    }
  ],
  "bytecode": "0x608060405234801561001057600080fd5b50611412806100206000396000f3fe608060405234801561001057600080fd5b50600436106100885760003560e01c806342920a461161005b57806342920a46146101395780635430bd9214610169578063f7888aec14610185578063fa540801146101b557610088565b806319045a251461008d5780631f29d2dc146100bd5780631f5ac1b2146100ed5780632f7dd5971461011d575b600080fd5b6100a760048036038101906100a29190610b8e565b6101e5565b6040516100b49190610c2b565b60405180910390f35b6100d760048036038101906100d29190610ca8565b610254565b6040516100e49190610c2b565b60405180910390f35b61010760048036038101906101029190610ce8565b61037e565b6040516101149190610d24565b60405180910390f35b61013760048036038101906101329190610d3f565b6103ae565b005b610153600480360381019061014e9190610d9b565b61056c565b6040516101609190610e25565b60405180910390f35b610183600480360381019061017e9190610d3f565b6105ca565b005b61019f600480360381019061019a9190610e40565b6107f5565b6040516101ac9190610e8f565b60405180910390f35b6101cf60048036038101906101ca9190610eaa565b610966565b6040516101dc9190610d24565b60405180910390f35b6000806000806101f485610996565b9250925092506001868285856040516000815260200160405260405161021d9493929190610ef3565b6020604051602081039080840390855afa15801561023f573d6000803e3d6000fd5b50505060206040510351935050505092915050565b6000808373ffffffffffffffffffffffffffffffffffffffff16636352211e846040518263ffffffff1660e01b81526004016102909190610e8f565b602060405180830381865afa1580156102ad573d6000803e3d6000fd5b505050506040513d601f19601f820116820180604052508101906102d19190610f4d565b90506000600160008373ffffffffffffffffffffffffffffffffffffffff1673ffffffffffffffffffffffffffffffffffffffff16815260200190815260200160002060009054906101000a900473ffffffffffffffffffffffffffffffffffffffff169050600073ffffffffffffffffffffffffffffffffffffffff168173ffffffffffffffffffffffffffffffffffffffff1614156103725781610374565b805b9250505092915050565b6000816040516020016103919190610fc2565b604051602081830303815290604052805190602001209050919050565b3073ffffffffffffffffffffffffffffffffffffffff166342920a468333846040518463ffffffff1660e01b81526004016103eb93929190611065565b602060405180830381865afa158015610408573d6000803e3d6000fd5b505050506040513d601f19601f8201168201806040525081019061042c91906110cf565b61046b576040517f08c379a000000000000000000000000000000000000000000000000000000000815260040161046290611159565b60405180910390fd5b60008060003373ffffffffffffffffffffffffffffffffffffffff1673ffffffffffffffffffffffffffffffffffffffff16815260200190815260200160002060006101000a81548173ffffffffffffffffffffffffffffffffffffffff021916908373ffffffffffffffffffffffffffffffffffffffff1602179055506000600160008473ffffffffffffffffffffffffffffffffffffffff1673ffffffffffffffffffffffffffffffffffffffff16815260200190815260200160002060006101000a81548173ffffffffffffffffffffffffffffffffffffffff021916908373ffffffffffffffffffffffffffffffffffffffff1602179055505050565b6000806105788461037e565b9050600061058582610966565b90508573ffffffffffffffffffffffffffffffffffffffff166105a882866101e5565b73ffffffffffffffffffffffffffffffffffffffff1614925050509392505050565b3373ffffffffffffffffffffffffffffffffffffffff168273ffffffffffffffffffffffffffffffffffffffff161415610639576040517f08c379a0000000000000000000000000000000000000000000000000000000008152600401610630906111eb565b60405180910390fd5b3073ffffffffffffffffffffffffffffffffffffffff166342920a468333846040518463ffffffff1660e01b815260040161067693929190611065565b602060405180830381865afa158015610693573d6000803e3d6000fd5b505050506040513d601f19601f820116820180604052508101906106b791906110cf565b6106f6576040517f08c379a00000000000000000000000000000000000000000000000000000000081526004016106ed90611159565b60405180910390fd5b816000803373ffffffffffffffffffffffffffffffffffffffff1673ffffffffffffffffffffffffffffffffffffffff16815260200190815260200160002060006101000a81548173ffffffffffffffffffffffffffffffffffffffff021916908373ffffffffffffffffffffffffffffffffffffffff16021790555033600160008473ffffffffffffffffffffffffffffffffffffffff1673ffffffffffffffffffffffffffffffffffffffff16815260200190815260200160002060006101000a81548173ffffffffffffffffffffffffffffffffffffffff021916908373ffffffffffffffffffffffffffffffffffffffff1602179055505050565b6000808373ffffffffffffffffffffffffffffffffffffffff166370a08231846040518263ffffffff1660e01b81526004016108319190610c2b565b602060405180830381865afa15801561084e573d6000803e3d6000fd5b505050506040513d601f19601f820116820180604052508101906108729190611220565b905060008473ffffffffffffffffffffffffffffffffffffffff166370a082316000808773ffffffffffffffffffffffffffffffffffffffff1673ffffffffffffffffffffffffffffffffffffffff16815260200190815260200160002060009054906101000a900473ffffffffffffffffffffffffffffffffffffffff166040518263ffffffff1660e01b815260040161090d9190610c2b565b602060405180830381865afa15801561092a573d6000803e3d6000fd5b505050506040513d601f19601f8201168201806040525081019061094e9190611220565b9050808261095c919061127c565b9250505092915050565b600081604051602001610979919061134a565b604051602081830303815290604052805190602001209050919050565b600080600060418451146109df576040517f08c379a00000000000000000000000000000000000000000000000000000000081526004016109d6906113bc565b60405180910390fd5b6020840151925060408401519150606084015160001a90509193909250565b6000604051905090565b600080fd5b600080fd5b6000819050919050565b610a2581610a12565b8114610a3057600080fd5b50565b600081359050610a4281610a1c565b92915050565b600080fd5b600080fd5b6000601f19601f8301169050919050565b7f4e487b7100000000000000000000000000000000000000000000000000000000600052604160045260246000fd5b610a9b82610a52565b810181811067ffffffffffffffff82111715610aba57610ab9610a63565b5b80604052505050565b6000610acd6109fe565b9050610ad98282610a92565b919050565b600067ffffffffffffffff821115610af957610af8610a63565b5b610b0282610a52565b9050602081019050919050565b82818337600083830152505050565b6000610b31610b2c84610ade565b610ac3565b905082815260208101848484011115610b4d57610b4c610a4d565b5b610b58848285610b0f565b509392505050565b600082601f830112610b7557610b74610a48565b5b8135610b85848260208601610b1e565b91505092915050565b60008060408385031215610ba557610ba4610a08565b5b6000610bb385828601610a33565b925050602083013567ffffffffffffffff811115610bd457610bd3610a0d565b5b610be085828601610b60565b9150509250929050565b600073ffffffffffffffffffffffffffffffffffffffff82169050919050565b6000610c1582610bea565b9050919050565b610c2581610c0a565b82525050565b6000602082019050610c406000830184610c1c565b92915050565b610c4f81610c0a565b8114610c5a57600080fd5b50565b600081359050610c6c81610c46565b92915050565b6000819050919050565b610c8581610c72565b8114610c9057600080fd5b50565b600081359050610ca281610c7c565b92915050565b60008060408385031215610cbf57610cbe610a08565b5b6000610ccd85828601610c5d565b9250506020610cde85828601610c93565b9150509250929050565b600060208284031215610cfe57610cfd610a08565b5b6000610d0c84828501610c5d565b91505092915050565b610d1e81610a12565b82525050565b6000602082019050610d396000830184610d15565b92915050565b60008060408385031215610d5657610d55610a08565b5b6000610d6485828601610c5d565b925050602083013567ffffffffffffffff811115610d8557610d84610a0d565b5b610d9185828601610b60565b9150509250929050565b600080600060608486031215610db457610db3610a08565b5b6000610dc286828701610c5d565b9350506020610dd386828701610c5d565b925050604084013567ffffffffffffffff811115610df457610df3610a0d565b5b610e0086828701610b60565b9150509250925092565b60008115159050919050565b610e1f81610e0a565b82525050565b6000602082019050610e3a6000830184610e16565b92915050565b60008060408385031215610e5757610e56610a08565b5b6000610e6585828601610c5d565b9250506020610e7685828601610c5d565b9150509250929050565b610e8981610c72565b82525050565b6000602082019050610ea46000830184610e80565b92915050565b600060208284031215610ec057610ebf610a08565b5b6000610ece84828501610a33565b91505092915050565b600060ff82169050919050565b610eed81610ed7565b82525050565b6000608082019050610f086000830187610d15565b610f156020830186610ee4565b610f226040830185610d15565b610f2f6060830184610d15565b95945050505050565b600081519050610f4781610c46565b92915050565b600060208284031215610f6357610f62610a08565b5b6000610f7184828501610f38565b91505092915050565b60008160601b9050919050565b6000610f9282610f7a565b9050919050565b6000610fa482610f87565b9050919050565b610fbc610fb782610c0a565b610f99565b82525050565b6000610fce8284610fab565b60148201915081905092915050565b600081519050919050565b600082825260208201905092915050565b60005b83811015611017578082015181840152602081019050610ffc565b83811115611026576000848401525b50505050565b600061103782610fdd565b6110418185610fe8565b9350611051818560208601610ff9565b61105a81610a52565b840191505092915050565b600060608201905061107a6000830186610c1c565b6110876020830185610c1c565b8181036040830152611099818461102c565b9050949350505050565b6110ac81610e0a565b81146110b757600080fd5b50565b6000815190506110c9816110a3565b92915050565b6000602082840312156110e5576110e4610a08565b5b60006110f3848285016110ba565b91505092915050565b600082825260208201905092915050565b7f696e76616c6964207369676e6174757265000000000000000000000000000000600082015250565b60006111436011836110fc565b915061114e8261110d565b602082019050919050565b6000602082019050818103600083015261117281611136565b9050919050565b7f686f7420616e6420636f6c642077616c6c6574732063616e6e6f74206265207460008201527f68652073616d6500000000000000000000000000000000000000000000000000602082015250565b60006111d56027836110fc565b91506111e082611179565b604082019050919050565b60006020820190508181036000830152611204816111c8565b9050919050565b60008151905061121a81610c7c565b92915050565b60006020828403121561123657611235610a08565b5b60006112448482850161120b565b91505092915050565b7f4e487b7100000000000000000000000000000000000000000000000000000000600052601160045260246000fd5b600061128782610c72565b915061129283610c72565b9250827fffffffffffffffffffffffffffffffffffffffffffffffffffffffffffffffff038211156112c7576112c661124d565b5b828201905092915050565b600081905092915050565b7f19457468657265756d205369676e6564204d6573736167653a0a333200000000600082015250565b6000611313601c836112d2565b915061131e826112dd565b601c82019050919050565b6000819050919050565b61134461133f82610a12565b611329565b82525050565b600061135582611306565b91506113618284611333565b60208201915081905092915050565b7f696e76616c6964207369676e6174757265206c656e6774680000000000000000600082015250565b60006113a66018836110fc565b91506113b182611370565b602082019050919050565b600060208201905081810360008301526113d581611399565b905091905056fea2646970667358221220a1229d355e312771a2719d78ddd2265b958ddda4a7771e084458f4682005f80a64736f6c634300080a0033",
  "linkReferences": {},
  "deployedLinkReferences": {}
}